{
  "contractName": "Vest",
  "abi": [
    {
      "inputs": [],
      "stateMutability": "nonpayable",
      "type": "constructor"
    },
    {
      "anonymous": false,
      "inputs": [
        {
          "indexed": true,
          "internalType": "address",
          "name": "owner",
          "type": "address"
        },
        {
          "indexed": true,
          "internalType": "address",
          "name": "spender",
          "type": "address"
        },
        {
          "indexed": false,
          "internalType": "uint256",
          "name": "value",
          "type": "uint256"
        }
      ],
      "name": "Approval",
      "type": "event"
    },
    {
      "anonymous": false,
      "inputs": [
        {
          "indexed": true,
          "internalType": "address",
          "name": "previousOwner",
          "type": "address"
        },
        {
          "indexed": true,
          "internalType": "address",
          "name": "newOwner",
          "type": "address"
        }
      ],
      "name": "OwnershipTransferred",
      "type": "event"
    },
    {
      "anonymous": false,
      "inputs": [
        {
          "indexed": true,
          "internalType": "address",
          "name": "from",
          "type": "address"
        },
        {
          "indexed": true,
          "internalType": "address",
          "name": "to",
          "type": "address"
        },
        {
          "indexed": false,
          "internalType": "uint256",
          "name": "value",
          "type": "uint256"
        }
      ],
      "name": "Transfer",
      "type": "event"
    },
    {
      "inputs": [
        {
          "internalType": "address",
          "name": "owner",
          "type": "address"
        },
        {
          "internalType": "address",
          "name": "spender",
          "type": "address"
        }
      ],
      "name": "allowance",
      "outputs": [
        {
          "internalType": "uint256",
          "name": "",
          "type": "uint256"
        }
      ],
      "stateMutability": "view",
      "type": "function",
      "constant": true
    },
    {
      "inputs": [
        {
          "internalType": "address",
          "name": "spender",
          "type": "address"
        },
        {
          "internalType": "uint256",
          "name": "amount",
          "type": "uint256"
        }
      ],
      "name": "approve",
      "outputs": [
        {
          "internalType": "bool",
          "name": "",
          "type": "bool"
        }
      ],
      "stateMutability": "nonpayable",
      "type": "function"
    },
    {
      "inputs": [
        {
          "internalType": "address",
          "name": "account",
          "type": "address"
        }
      ],
      "name": "balanceOf",
      "outputs": [
        {
          "internalType": "uint256",
          "name": "",
          "type": "uint256"
        }
      ],
      "stateMutability": "view",
      "type": "function",
      "constant": true
    },
    {
      "inputs": [],
      "name": "decimals",
      "outputs": [
        {
          "internalType": "uint8",
          "name": "",
          "type": "uint8"
        }
      ],
      "stateMutability": "view",
      "type": "function",
      "constant": true
    },
    {
      "inputs": [
        {
          "internalType": "address",
          "name": "spender",
          "type": "address"
        },
        {
          "internalType": "uint256",
          "name": "subtractedValue",
          "type": "uint256"
        }
      ],
      "name": "decreaseAllowance",
      "outputs": [
        {
          "internalType": "bool",
          "name": "",
          "type": "bool"
        }
      ],
      "stateMutability": "nonpayable",
      "type": "function"
    },
    {
      "inputs": [
        {
          "internalType": "address",
          "name": "spender",
          "type": "address"
        },
        {
          "internalType": "uint256",
          "name": "addedValue",
          "type": "uint256"
        }
      ],
      "name": "increaseAllowance",
      "outputs": [
        {
          "internalType": "bool",
          "name": "",
          "type": "bool"
        }
      ],
      "stateMutability": "nonpayable",
      "type": "function"
    },
    {
      "inputs": [],
      "name": "name",
      "outputs": [
        {
          "internalType": "string",
          "name": "",
          "type": "string"
        }
      ],
      "stateMutability": "view",
      "type": "function",
      "constant": true
    },
    {
      "inputs": [],
      "name": "owner",
      "outputs": [
        {
          "internalType": "address",
          "name": "",
          "type": "address"
        }
      ],
      "stateMutability": "view",
      "type": "function",
      "constant": true
    },
    {
      "inputs": [],
      "name": "renounceOwnership",
      "outputs": [],
      "stateMutability": "nonpayable",
      "type": "function"
    },
    {
      "inputs": [],
      "name": "startTime",
      "outputs": [
        {
          "internalType": "uint256",
          "name": "",
          "type": "uint256"
        }
      ],
      "stateMutability": "view",
      "type": "function",
      "constant": true
    },
    {
      "inputs": [],
      "name": "symbol",
      "outputs": [
        {
          "internalType": "string",
          "name": "",
          "type": "string"
        }
      ],
      "stateMutability": "view",
      "type": "function",
      "constant": true
    },
    {
      "inputs": [
        {
          "internalType": "address",
          "name": "",
          "type": "address"
        }
      ],
      "name": "tokensPerAddress",
      "outputs": [
        {
          "internalType": "uint256",
          "name": "tokens",
          "type": "uint256"
        },
        {
          "internalType": "uint256",
          "name": "lastClaimed",
          "type": "uint256"
        }
      ],
      "stateMutability": "view",
      "type": "function",
      "constant": true
    },
    {
      "inputs": [],
      "name": "totalSupply",
      "outputs": [
        {
          "internalType": "uint256",
          "name": "",
          "type": "uint256"
        }
      ],
      "stateMutability": "view",
      "type": "function",
      "constant": true
    },
    {
      "inputs": [
        {
          "internalType": "address",
          "name": "recipient",
          "type": "address"
        },
        {
          "internalType": "uint256",
          "name": "amount",
          "type": "uint256"
        }
      ],
      "name": "transfer",
      "outputs": [
        {
          "internalType": "bool",
          "name": "",
          "type": "bool"
        }
      ],
      "stateMutability": "nonpayable",
      "type": "function"
    },
    {
      "inputs": [
        {
          "internalType": "address",
          "name": "sender",
          "type": "address"
        },
        {
          "internalType": "address",
          "name": "recipient",
          "type": "address"
        },
        {
          "internalType": "uint256",
          "name": "amount",
          "type": "uint256"
        }
      ],
      "name": "transferFrom",
      "outputs": [
        {
          "internalType": "bool",
          "name": "",
          "type": "bool"
        }
      ],
      "stateMutability": "nonpayable",
      "type": "function"
    },
    {
      "inputs": [
        {
          "internalType": "address",
          "name": "newOwner",
          "type": "address"
        }
      ],
      "name": "transferOwnership",
      "outputs": [],
      "stateMutability": "nonpayable",
      "type": "function"
    },
    {
      "inputs": [],
      "name": "vestingPeriod",
      "outputs": [
        {
          "internalType": "uint256",
          "name": "",
          "type": "uint256"
        }
      ],
      "stateMutability": "view",
      "type": "function",
      "constant": true
    },
    {
      "inputs": [
        {
          "internalType": "address[]",
          "name": "_users",
          "type": "address[]"
        },
        {
          "internalType": "uint256[]",
          "name": "_tokens",
          "type": "uint256[]"
        }
      ],
      "name": "addTokensForAddresses",
      "outputs": [],
      "stateMutability": "nonpayable",
      "type": "function"
    },
    {
      "inputs": [],
      "name": "startVesting",
      "outputs": [],
      "stateMutability": "nonpayable",
      "type": "function"
    },
    {
      "inputs": [],
      "name": "claimFunds",
      "outputs": [],
      "stateMutability": "nonpayable",
      "type": "function"
    }
  ],
  "bytecode": "0x60806040523480156200001157600080fd5b506040518060400160405280600581526020017f536179616e0000000000000000000000000000000000000000000000000000008152506040518060400160405280600381526020017f4b415200000000000000000000000000000000000000000000000000000000008152506200009e62000092620000d860201b60201c565b620000e060201b60201c565b8160049080519060200190620000b6929190620001a4565b508060059080519060200190620000cf929190620001a4565b505050620002b9565b600033905090565b60008060009054906101000a900473ffffffffffffffffffffffffffffffffffffffff169050816000806101000a81548173ffffffffffffffffffffffffffffffffffffffff021916908373ffffffffffffffffffffffffffffffffffffffff1602179055508173ffffffffffffffffffffffffffffffffffffffff168173ffffffffffffffffffffffffffffffffffffffff167f8be0079c531659141344cd1fd0a4f28419497f9722a3daafe3b4186f6b6457e060405160405180910390a35050565b828054620001b29062000254565b90600052602060002090601f016020900481019282620001d6576000855562000222565b82601f10620001f157805160ff191683800117855562000222565b8280016001018555821562000222579182015b828111156200022157825182559160200191906001019062000204565b5b50905062000231919062000235565b5090565b5b808211156200025057600081600090555060010162000236565b5090565b600060028204905060018216806200026d57607f821691505b602082108114156200028457620002836200028a565b5b50919050565b7f4e487b7100000000000000000000000000000000000000000000000000000000600052602260045260246000fd5b61298780620002c96000396000f3fe608060405234801561001057600080fd5b506004361061012c5760003560e01c806378e97925116100ad578063a9059cbb11610071578063a9059cbb1461034a578063ac3077731461037a578063dd62ed3e14610384578063deb36e32146103b4578063f2fde38b146103be5761012c565b806378e97925146102a45780638da5cb5b146102c257806395d89b41146102e0578063a3648aab146102fe578063a457c2d71461031a5761012c565b806339509351116100f457806339509351146101eb578063425432b11461021b57806370a082311461024c578063715018a61461027c5780637313ee5a146102865761012c565b806306fdde0314610131578063095ea7b31461014f57806318160ddd1461017f57806323b872dd1461019d578063313ce567146101cd575b600080fd5b6101396103da565b6040516101469190611d69565b60405180910390f35b610169600480360381019061016491906119aa565b61046c565b6040516101769190611d4e565b60405180910390f35b61018761048a565b6040516101949190611fab565b60405180910390f35b6101b760048036038101906101b29190611957565b610494565b6040516101c49190611d4e565b60405180910390f35b6101d561058c565b6040516101e29190611fef565b60405180910390f35b610205600480360381019061020091906119aa565b610595565b6040516102129190611d4e565b60405180910390f35b610235600480360381019061023091906118ea565b610641565b604051610243929190611fc6565b60405180910390f35b610266600480360381019061026191906118ea565b610665565b6040516102739190611fab565b60405180910390f35b6102846106ae565b005b61028e610736565b60405161029b9190611fab565b60405180910390f35b6102ac61073b565b6040516102b99190611fab565b60405180910390f35b6102ca610741565b6040516102d79190611d33565b60405180910390f35b6102e861076a565b6040516102f59190611d69565b60405180910390f35b610318600480360381019061031391906119ea565b6107fc565b005b610334600480360381019061032f91906119aa565b610a2c565b6040516103419190611d4e565b60405180910390f35b610364600480360381019061035f91906119aa565b610b17565b6040516103719190611d4e565b60405180910390f35b610382610b35565b005b61039e60048036038101906103999190611917565b610f45565b6040516103ab9190611fab565b60405180910390f35b6103bc610fcc565b005b6103d860048036038101906103d391906118ea565b611096565b005b6060600480546103e990612334565b80601f016020809104026020016040519081016040528092919081815260200182805461041590612334565b80156104625780601f1061043757610100808354040283529160200191610462565b820191906000526020600020905b81548152906001019060200180831161044557829003601f168201915b5050505050905090565b600061048061047961118e565b8484611196565b6001905092915050565b6000600354905090565b60006104a1848484611361565b6000600260008673ffffffffffffffffffffffffffffffffffffffff1673ffffffffffffffffffffffffffffffffffffffff16815260200190815260200160002060006104ec61118e565b73ffffffffffffffffffffffffffffffffffffffff1673ffffffffffffffffffffffffffffffffffffffff1681526020019081526020016000205490508281101561056c576040517f08c379a000000000000000000000000000000000000000000000000000000000815260040161056390611eab565b60405180910390fd5b6105808561057861118e565b858403611196565b60019150509392505050565b60006012905090565b60006106376105a261118e565b8484600260006105b061118e565b73ffffffffffffffffffffffffffffffffffffffff1673ffffffffffffffffffffffffffffffffffffffff16815260200190815260200160002060008873ffffffffffffffffffffffffffffffffffffffff1673ffffffffffffffffffffffffffffffffffffffff168152602001908152602001600020546106329190612026565b611196565b6001905092915050565b60066020528060005260406000206000915090508060000154908060010154905082565b6000600160008373ffffffffffffffffffffffffffffffffffffffff1673ffffffffffffffffffffffffffffffffffffffff168152602001908152602001600020549050919050565b6106b661118e565b73ffffffffffffffffffffffffffffffffffffffff166106d4610741565b73ffffffffffffffffffffffffffffffffffffffff161461072a576040517f08c379a000000000000000000000000000000000000000000000000000000000815260040161072190611ecb565b60405180910390fd5b61073460006115e5565b565b607881565b60075481565b60008060009054906101000a900473ffffffffffffffffffffffffffffffffffffffff16905090565b60606005805461077990612334565b80601f01602080910402602001604051908101604052809291908181526020018280546107a590612334565b80156107f25780601f106107c7576101008083540402835291602001916107f2565b820191906000526020600020905b8154815290600101906020018083116107d557829003601f168201915b5050505050905090565b61080461118e565b73ffffffffffffffffffffffffffffffffffffffff16610822610741565b73ffffffffffffffffffffffffffffffffffffffff1614610878576040517f08c379a000000000000000000000000000000000000000000000000000000000815260040161086f90611ecb565b60405180910390fd5b8181905084849050146108c0576040517f08c379a00000000000000000000000000000000000000000000000000000000081526004016108b790611e6b565b60405180910390fd5b6103e8848490501115610908576040517f08c379a00000000000000000000000000000000000000000000000000000000081526004016108ff90611deb565b60405180910390fd5b60006007541461094d576040517f08c379a000000000000000000000000000000000000000000000000000000000815260040161094490611eeb565b60405180910390fd5b60005b84849050811015610a255761096361058c565b600a61096f9190612100565b8383838181106109825761098161243c565b5b90506020020135610993919061221e565b600660008787858181106109aa576109a961243c565b5b90506020020160208101906109bf91906118ea565b73ffffffffffffffffffffffffffffffffffffffff1673ffffffffffffffffffffffffffffffffffffffff1681526020019081526020016000206000016000828254610a0b9190612026565b925050819055508080610a1d90612366565b915050610950565b5050505050565b60008060026000610a3b61118e565b73ffffffffffffffffffffffffffffffffffffffff1673ffffffffffffffffffffffffffffffffffffffff16815260200190815260200160002060008573ffffffffffffffffffffffffffffffffffffffff1673ffffffffffffffffffffffffffffffffffffffff16815260200190815260200160002054905082811015610af8576040517f08c379a0000000000000000000000000000000000000000000000000000000008152600401610aef90611f6b565b60405180910390fd5b610b0c610b0361118e565b85858403611196565b600191505092915050565b6000610b2b610b2461118e565b8484611361565b6001905092915050565b60006007541415610b7b576040517f08c379a0000000000000000000000000000000000000000000000000000000008152600401610b7290611e8b565b60405180910390fd5b6000600660003373ffffffffffffffffffffffffffffffffffffffff1673ffffffffffffffffffffffffffffffffffffffff1681526020019081526020016000206000015411610c00576040517f08c379a0000000000000000000000000000000000000000000000000000000008152600401610bf790611e4b565b60405180910390fd5b6078600754610c0f9190612026565b600660003373ffffffffffffffffffffffffffffffffffffffff1673ffffffffffffffffffffffffffffffffffffffff168152602001908152602001600020600101541115610c93576040517f08c379a0000000000000000000000000000000000000000000000000000000008152600401610c8a90611f0b565b60405180910390fd5b600080600660003373ffffffffffffffffffffffffffffffffffffffff1673ffffffffffffffffffffffffffffffffffffffff168152602001908152602001600020600101541415610d2957600754600660003373ffffffffffffffffffffffffffffffffffffffff1673ffffffffffffffffffffffffffffffffffffffff168152602001908152602001600020600101819055505b6078600754610d389190612026565b4210610e415760006078600660003373ffffffffffffffffffffffffffffffffffffffff1673ffffffffffffffffffffffffffffffffffffffff16815260200190815260200160002060000154600754600660003373ffffffffffffffffffffffffffffffffffffffff1673ffffffffffffffffffffffffffffffffffffffff16815260200190815260200160002060010154610dd59190612278565b610ddf919061221e565b610de9919061207c565b905080600660003373ffffffffffffffffffffffffffffffffffffffff1673ffffffffffffffffffffffffffffffffffffffff16815260200190815260200160002060000154610e399190612278565b915050610ef1565b6000600660003373ffffffffffffffffffffffffffffffffffffffff1673ffffffffffffffffffffffffffffffffffffffff1681526020019081526020016000206001015442610e919190612278565b90506078600660003373ffffffffffffffffffffffffffffffffffffffff1673ffffffffffffffffffffffffffffffffffffffff1681526020019081526020016000206000015482610ee3919061221e565b610eed919061207c565b9150505b42600660003373ffffffffffffffffffffffffffffffffffffffff1673ffffffffffffffffffffffffffffffffffffffff16815260200190815260200160002060010181905550610f4233826116a9565b50565b6000600260008473ffffffffffffffffffffffffffffffffffffffff1673ffffffffffffffffffffffffffffffffffffffff16815260200190815260200160002060008373ffffffffffffffffffffffffffffffffffffffff1673ffffffffffffffffffffffffffffffffffffffff16815260200190815260200160002054905092915050565b610fd461118e565b73ffffffffffffffffffffffffffffffffffffffff16610ff2610741565b73ffffffffffffffffffffffffffffffffffffffff1614611048576040517f08c379a000000000000000000000000000000000000000000000000000000000815260040161103f90611ecb565b60405180910390fd5b60006007541461108d576040517f08c379a000000000000000000000000000000000000000000000000000000000815260040161108490611e2b565b60405180910390fd5b42600781905550565b61109e61118e565b73ffffffffffffffffffffffffffffffffffffffff166110bc610741565b73ffffffffffffffffffffffffffffffffffffffff1614611112576040517f08c379a000000000000000000000000000000000000000000000000000000000815260040161110990611ecb565b60405180910390fd5b600073ffffffffffffffffffffffffffffffffffffffff168173ffffffffffffffffffffffffffffffffffffffff161415611182576040517f08c379a000000000000000000000000000000000000000000000000000000000815260040161117990611dab565b60405180910390fd5b61118b816115e5565b50565b600033905090565b600073ffffffffffffffffffffffffffffffffffffffff168373ffffffffffffffffffffffffffffffffffffffff161415611206576040517f08c379a00000000000000000000000000000000000000000000000000000000081526004016111fd90611f4b565b60405180910390fd5b600073ffffffffffffffffffffffffffffffffffffffff168273ffffffffffffffffffffffffffffffffffffffff161415611276576040517f08c379a000000000000000000000000000000000000000000000000000000000815260040161126d90611dcb565b60405180910390fd5b80600260008573ffffffffffffffffffffffffffffffffffffffff1673ffffffffffffffffffffffffffffffffffffffff16815260200190815260200160002060008473ffffffffffffffffffffffffffffffffffffffff1673ffffffffffffffffffffffffffffffffffffffff168152602001908152602001600020819055508173ffffffffffffffffffffffffffffffffffffffff168373ffffffffffffffffffffffffffffffffffffffff167f8c5be1e5ebec7d5bd14f71427d1e84f3dd0314c0f7b2291e5b200ac8c7c3b925836040516113549190611fab565b60405180910390a3505050565b600073ffffffffffffffffffffffffffffffffffffffff168373ffffffffffffffffffffffffffffffffffffffff1614156113d1576040517f08c379a00000000000000000000000000000000000000000000000000000000081526004016113c890611f2b565b60405180910390fd5b600073ffffffffffffffffffffffffffffffffffffffff168273ffffffffffffffffffffffffffffffffffffffff161415611441576040517f08c379a000000000000000000000000000000000000000000000000000000000815260040161143890611d8b565b60405180910390fd5b61144c83838361180a565b6000600160008573ffffffffffffffffffffffffffffffffffffffff1673ffffffffffffffffffffffffffffffffffffffff168152602001908152602001600020549050818110156114d3576040517f08c379a00000000000000000000000000000000000000000000000000000000081526004016114ca90611e0b565b60405180910390fd5b818103600160008673ffffffffffffffffffffffffffffffffffffffff1673ffffffffffffffffffffffffffffffffffffffff1681526020019081526020016000208190555081600160008573ffffffffffffffffffffffffffffffffffffffff1673ffffffffffffffffffffffffffffffffffffffff16815260200190815260200160002060008282546115689190612026565b925050819055508273ffffffffffffffffffffffffffffffffffffffff168473ffffffffffffffffffffffffffffffffffffffff167fddf252ad1be2c89b69c2b068fc378daa952ba7f163c4a11628f55a4df523b3ef846040516115cc9190611fab565b60405180910390a36115df84848461180f565b50505050565b60008060009054906101000a900473ffffffffffffffffffffffffffffffffffffffff169050816000806101000a81548173ffffffffffffffffffffffffffffffffffffffff021916908373ffffffffffffffffffffffffffffffffffffffff1602179055508173ffffffffffffffffffffffffffffffffffffffff168173ffffffffffffffffffffffffffffffffffffffff167f8be0079c531659141344cd1fd0a4f28419497f9722a3daafe3b4186f6b6457e060405160405180910390a35050565b600073ffffffffffffffffffffffffffffffffffffffff168273ffffffffffffffffffffffffffffffffffffffff161415611719576040517f08c379a000000000000000000000000000000000000000000000000000000000815260040161171090611f8b565b60405180910390fd5b6117256000838361180a565b80600360008282546117379190612026565b9250508190555080600160008473ffffffffffffffffffffffffffffffffffffffff1673ffffffffffffffffffffffffffffffffffffffff168152602001908152602001600020600082825461178d9190612026565b925050819055508173ffffffffffffffffffffffffffffffffffffffff16600073ffffffffffffffffffffffffffffffffffffffff167fddf252ad1be2c89b69c2b068fc378daa952ba7f163c4a11628f55a4df523b3ef836040516117f29190611fab565b60405180910390a36118066000838361180f565b5050565b505050565b505050565b60008135905061182381612923565b92915050565b60008083601f84011261183f5761183e612470565b5b8235905067ffffffffffffffff81111561185c5761185b61246b565b5b60208301915083602082028301111561187857611877612475565b5b9250929050565b60008083601f84011261189557611894612470565b5b8235905067ffffffffffffffff8111156118b2576118b161246b565b5b6020830191508360208202830111156118ce576118cd612475565b5b9250929050565b6000813590506118e48161293a565b92915050565b600060208284031215611900576118ff61247f565b5b600061190e84828501611814565b91505092915050565b6000806040838503121561192e5761192d61247f565b5b600061193c85828601611814565b925050602061194d85828601611814565b9150509250929050565b6000806000606084860312156119705761196f61247f565b5b600061197e86828701611814565b935050602061198f86828701611814565b92505060406119a0868287016118d5565b9150509250925092565b600080604083850312156119c1576119c061247f565b5b60006119cf85828601611814565b92505060206119e0858286016118d5565b9150509250929050565b60008060008060408587031215611a0457611a0361247f565b5b600085013567ffffffffffffffff811115611a2257611a2161247a565b5b611a2e87828801611829565b9450945050602085013567ffffffffffffffff811115611a5157611a5061247a565b5b611a5d8782880161187f565b925092505092959194509250565b611a74816122ac565b82525050565b611a83816122be565b82525050565b6000611a948261200a565b611a9e8185612015565b9350611aae818560208601612301565b611ab781612484565b840191505092915050565b6000611acf602383612015565b9150611ada826124a2565b604082019050919050565b6000611af2602683612015565b9150611afd826124f1565b604082019050919050565b6000611b15602283612015565b9150611b2082612540565b604082019050919050565b6000611b38601783612015565b9150611b438261258f565b602082019050919050565b6000611b5b602683612015565b9150611b66826125b8565b604082019050919050565b6000611b7e602883612015565b9150611b8982612607565b604082019050919050565b6000611ba1601483612015565b9150611bac82612656565b602082019050919050565b6000611bc4602683612015565b9150611bcf8261267f565b604082019050919050565b6000611be7601a83612015565b9150611bf2826126ce565b602082019050919050565b6000611c0a602883612015565b9150611c15826126f7565b604082019050919050565b6000611c2d602083612015565b9150611c3882612746565b602082019050919050565b6000611c50603e83612015565b9150611c5b8261276f565b604082019050919050565b6000611c73602183612015565b9150611c7e826127be565b604082019050919050565b6000611c96602583612015565b9150611ca18261280d565b604082019050919050565b6000611cb9602483612015565b9150611cc48261285c565b604082019050919050565b6000611cdc602583612015565b9150611ce7826128ab565b604082019050919050565b6000611cff601f83612015565b9150611d0a826128fa565b602082019050919050565b611d1e816122ea565b82525050565b611d2d816122f4565b82525050565b6000602082019050611d486000830184611a6b565b92915050565b6000602082019050611d636000830184611a7a565b92915050565b60006020820190508181036000830152611d838184611a89565b905092915050565b60006020820190508181036000830152611da481611ac2565b9050919050565b60006020820190508181036000830152611dc481611ae5565b9050919050565b60006020820190508181036000830152611de481611b08565b9050919050565b60006020820190508181036000830152611e0481611b2b565b9050919050565b60006020820190508181036000830152611e2481611b4e565b9050919050565b60006020820190508181036000830152611e4481611b71565b9050919050565b60006020820190508181036000830152611e6481611b94565b9050919050565b60006020820190508181036000830152611e8481611bb7565b9050919050565b60006020820190508181036000830152611ea481611bda565b9050919050565b60006020820190508181036000830152611ec481611bfd565b9050919050565b60006020820190508181036000830152611ee481611c20565b9050919050565b60006020820190508181036000830152611f0481611c43565b9050919050565b60006020820190508181036000830152611f2481611c66565b9050919050565b60006020820190508181036000830152611f4481611c89565b9050919050565b60006020820190508181036000830152611f6481611cac565b9050919050565b60006020820190508181036000830152611f8481611ccf565b9050919050565b60006020820190508181036000830152611fa481611cf2565b9050919050565b6000602082019050611fc06000830184611d15565b92915050565b6000604082019050611fdb6000830185611d15565b611fe86020830184611d15565b9392505050565b60006020820190506120046000830184611d24565b92915050565b600081519050919050565b600082825260208201905092915050565b6000612031826122ea565b915061203c836122ea565b9250827fffffffffffffffffffffffffffffffffffffffffffffffffffffffffffffffff03821115612071576120706123af565b5b828201905092915050565b6000612087826122ea565b9150612092836122ea565b9250826120a2576120a16123de565b5b828204905092915050565b6000808291508390505b60018511156120f7578086048111156120d3576120d26123af565b5b60018516156120e25780820291505b80810290506120f085612495565b94506120b7565b94509492505050565b600061210b826122ea565b9150612116836122f4565b92506121437fffffffffffffffffffffffffffffffffffffffffffffffffffffffffffffffff848461214b565b905092915050565b60008261215b5760019050612217565b816121695760009050612217565b816001811461217f5760028114612189576121b8565b6001915050612217565b60ff84111561219b5761219a6123af565b5b8360020a9150848211156121b2576121b16123af565b5b50612217565b5060208310610133831016604e8410600b84101617156121ed5782820a9050838111156121e8576121e76123af565b5b612217565b6121fa84848460016120ad565b92509050818404811115612211576122106123af565b5b81810290505b9392505050565b6000612229826122ea565b9150612234836122ea565b9250817fffffffffffffffffffffffffffffffffffffffffffffffffffffffffffffffff048311821515161561226d5761226c6123af565b5b828202905092915050565b6000612283826122ea565b915061228e836122ea565b9250828210156122a1576122a06123af565b5b828203905092915050565b60006122b7826122ca565b9050919050565b60008115159050919050565b600073ffffffffffffffffffffffffffffffffffffffff82169050919050565b6000819050919050565b600060ff82169050919050565b60005b8381101561231f578082015181840152602081019050612304565b8381111561232e576000848401525b50505050565b6000600282049050600182168061234c57607f821691505b602082108114156123605761235f61240d565b5b50919050565b6000612371826122ea565b91507fffffffffffffffffffffffffffffffffffffffffffffffffffffffffffffffff8214156123a4576123a36123af565b5b600182019050919050565b7f4e487b7100000000000000000000000000000000000000000000000000000000600052601160045260246000fd5b7f4e487b7100000000000000000000000000000000000000000000000000000000600052601260045260246000fd5b7f4e487b7100000000000000000000000000000000000000000000000000000000600052602260045260246000fd5b7f4e487b7100000000000000000000000000000000000000000000000000000000600052603260045260246000fd5b600080fd5b600080fd5b600080fd5b600080fd5b600080fd5b6000601f19601f8301169050919050565b60008160011c9050919050565b7f45524332303a207472616e7366657220746f20746865207a65726f206164647260008201527f6573730000000000000000000000000000000000000000000000000000000000602082015250565b7f4f776e61626c653a206e6577206f776e657220697320746865207a65726f206160008201527f6464726573730000000000000000000000000000000000000000000000000000602082015250565b7f45524332303a20617070726f766520746f20746865207a65726f20616464726560008201527f7373000000000000000000000000000000000000000000000000000000000000602082015250565b7f557365724c697374206c696d6974206578636565646564000000000000000000600082015250565b7f45524332303a207472616e7366657220616d6f756e742065786365656473206260008201527f616c616e63650000000000000000000000000000000000000000000000000000602082015250565b7f56657374696e672063616e6e6f742062652073746172746564206d6f7265207460008201527f68616e206f6e6365000000000000000000000000000000000000000000000000602082015250565b7f5a65726f20746f6b656e732061737369676e6564000000000000000000000000600082015250565b7f557365724c69737420616e6420546f6b656e4c697374206c656e677468206e6f60008201527f742073616d650000000000000000000000000000000000000000000000000000602082015250565b7f56657374696e6720706572696f64206e6f742073746172746564000000000000600082015250565b7f45524332303a207472616e7366657220616d6f756e742065786365656473206160008201527f6c6c6f77616e6365000000000000000000000000000000000000000000000000602082015250565b7f4f776e61626c653a2063616c6c6572206973206e6f7420746865206f776e6572600082015250565b7f43616e6e6f742075706461746520746f6b656e7350657241646465737320616660008201527f7465722056657374696e6720706572696f642068617320737461727465640000602082015250565b7f596f7520686176652066756c6c7920636c61696d656420796f75722066756e6460008201527f7300000000000000000000000000000000000000000000000000000000000000602082015250565b7f45524332303a207472616e736665722066726f6d20746865207a65726f20616460008201527f6472657373000000000000000000000000000000000000000000000000000000602082015250565b7f45524332303a20617070726f76652066726f6d20746865207a65726f2061646460008201527f7265737300000000000000000000000000000000000000000000000000000000602082015250565b7f45524332303a2064656372656173656420616c6c6f77616e63652062656c6f7760008201527f207a65726f000000000000000000000000000000000000000000000000000000602082015250565b7f45524332303a206d696e7420746f20746865207a65726f206164647265737300600082015250565b61292c816122ac565b811461293757600080fd5b50565b612943816122ea565b811461294e57600080fd5b5056fea2646970667358221220b37b19edacbf6bdd940637d714d7a974eece3306b4ecd5e3e2b8e0a3a6d34dd664736f6c63430008070033",
  "immutableReferences": {},
  "source": "// SPDX-License-Identifier: MIT\npragma solidity >=0.8.0 <0.9.0;\n\nimport \"@openzeppelin/contracts/access/Ownable.sol\";\nimport \"@openzeppelin/contracts/token/ERC20/ERC20.sol\";\n\ncontract Vest is Ownable, ERC20 {\n    \n    struct addressDetail {\n        uint256 tokens;     // Amount of total tokens \n        uint lastClaimed;   // Stores the timestamp when funds were last claimed\n    }\n\n    mapping(address => addressDetail) public tokensPerAddress;     // Stores mappings of tokens vested fo each address\n    uint public startTime;                                         // Stores the start time when vesting starts \n    uint constant public vestingPeriod = 2 minutes;                // Stores the vesting period duration\n\n    constructor() ERC20(\"Sayan\", \"KAR\") {}\n    \n    // Helps update tokens per address\n    // The users list length should be less than equal to 1000\n    function addTokensForAddresses(address[] calldata _users, uint[] calldata _tokens) external onlyOwner {\n        require(_users.length == _tokens.length, \"UserList and TokenList length not same\");\n        require(_users.length <= 1000, \"UserList limit exceeded\");\n        require(startTime == 0, \"Cannot update tokensPerAddess after Vesting period has started\");\n        for(uint index = 0; index < _users.length; index++) {\n            tokensPerAddress[_users[index]].tokens += _tokens[index] * (10**decimals());\n        }\n    }\n\n    // Start vesting tokens over six months\n    function startVesting() external onlyOwner {\n        require(startTime == 0, \"Vesting cannot be started more than once\");\n        startTime = block.timestamp;\n    }\n\n    // Releases the tokens for the msg.sender \n    function claimFunds() external {\n        require(startTime != 0, \"Vesting period not started\");\n        require(tokensPerAddress[msg.sender].tokens > 0, \"Zero tokens assigned\");\n        require(tokensPerAddress[msg.sender].lastClaimed <= startTime + vestingPeriod, \"You have fully claimed your funds\");\n        \n        uint claimAmount;\n        \n        if(tokensPerAddress[msg.sender].lastClaimed == 0)\n            tokensPerAddress[msg.sender].lastClaimed = startTime;\n\n        if( block.timestamp >= startTime + vestingPeriod){\n            uint previousClaimedAmount = ((tokensPerAddress[msg.sender].lastClaimed - startTime) * tokensPerAddress[msg.sender].tokens) / vestingPeriod;\n            claimAmount = tokensPerAddress[msg.sender].tokens - previousClaimedAmount;\n        } else {\n            uint rewardTime = block.timestamp - tokensPerAddress[msg.sender].lastClaimed;\n            claimAmount = (rewardTime * tokensPerAddress[msg.sender].tokens) / vestingPeriod; \n        }\n\n        tokensPerAddress[msg.sender].lastClaimed = block.timestamp;\n        _mint(msg.sender, claimAmount);\n    }\n}\n",
  "sourcePath": "/home/sayan/truffle-testing/contracts/Vesting.sol",
  "compiler": {
    "name": "solc",
    "version": "0.8.7+commit.e28d00a7.Emscripten.clang"
  },
  "schemaVersion": "3.3.3",
  "updatedAt": "2021-12-22T06:13:05.447Z",
  "networkType": "ethereum",
  "devdoc": {
    "kind": "dev",
    "methods": {
      "allowance(address,address)": {
        "details": "See {IERC20-allowance}."
      },
      "approve(address,uint256)": {
        "details": "See {IERC20-approve}. Requirements: - `spender` cannot be the zero address."
      },
      "balanceOf(address)": {
        "details": "See {IERC20-balanceOf}."
      },
      "decimals()": {
        "details": "Returns the number of decimals used to get its user representation. For example, if `decimals` equals `2`, a balance of `505` tokens should be displayed to a user as `5.05` (`505 / 10 ** 2`). Tokens usually opt for a value of 18, imitating the relationship between Ether and Wei. This is the value {ERC20} uses, unless this function is overridden; NOTE: This information is only used for _display_ purposes: it in no way affects any of the arithmetic of the contract, including {IERC20-balanceOf} and {IERC20-transfer}."
      },
      "decreaseAllowance(address,uint256)": {
        "details": "Atomically decreases the allowance granted to `spender` by the caller. This is an alternative to {approve} that can be used as a mitigation for problems described in {IERC20-approve}. Emits an {Approval} event indicating the updated allowance. Requirements: - `spender` cannot be the zero address. - `spender` must have allowance for the caller of at least `subtractedValue`."
      },
      "increaseAllowance(address,uint256)": {
        "details": "Atomically increases the allowance granted to `spender` by the caller. This is an alternative to {approve} that can be used as a mitigation for problems described in {IERC20-approve}. Emits an {Approval} event indicating the updated allowance. Requirements: - `spender` cannot be the zero address."
      },
      "name()": {
        "details": "Returns the name of the token."
      },
      "owner()": {
        "details": "Returns the address of the current owner."
      },
      "renounceOwnership()": {
        "details": "Leaves the contract without owner. It will not be possible to call `onlyOwner` functions anymore. Can only be called by the current owner. NOTE: Renouncing ownership will leave the contract without an owner, thereby removing any functionality that is only available to the owner."
      },
      "symbol()": {
        "details": "Returns the symbol of the token, usually a shorter version of the name."
      },
      "totalSupply()": {
        "details": "See {IERC20-totalSupply}."
      },
      "transfer(address,uint256)": {
        "details": "See {IERC20-transfer}. Requirements: - `recipient` cannot be the zero address. - the caller must have a balance of at least `amount`."
      },
      "transferFrom(address,address,uint256)": {
        "details": "See {IERC20-transferFrom}. Emits an {Approval} event indicating the updated allowance. This is not required by the EIP. See the note at the beginning of {ERC20}. Requirements: - `sender` and `recipient` cannot be the zero address. - `sender` must have a balance of at least `amount`. - the caller must have allowance for ``sender``'s tokens of at least `amount`."
      },
      "transferOwnership(address)": {
        "details": "Transfers ownership of the contract to a new account (`newOwner`). Can only be called by the current owner."
      }
    },
    "version": 1
  },
  "userdoc": {
    "kind": "user",
    "methods": {},
    "version": 1
  }
}